:100000000C942A000C9447000C9447000C94470071
:100010000C9447000C9447000C9447000C94470044
:100020000C9447000C9447000C945B000C9449001E
:100030000C9447000C9447000C9447000C94470024
:100040000C9447000C9447000C9447000C94470014
:100050000C94470011241FBECFE5D8E0DEBFCDBF12
:1000600022E0A6E6B0E001C01D92AC36B207E1F78F
:1000700010E0A0E6B0E0E4E8F7E002C005900D92E1
:10008000A636B107D9F70E9441020C94C0030C9424
:1000900000001F920F9200905F000F921124CF93E7
:1000A000DF93CDB7DEB7DF91CF910F9000925F0065
:1000B0000F901F9018951F920F9200905F000F9263
:1000C00011242F933F934F938F939F93EF93FF931D
:1000D000CF93DF9300D0CDB7DEB71A8219829BC0D1
:1000E00089819A81880F991F8A599F4FFC018081CD
:1000F0009181FC018781882309F442C089819A811A
:10010000880F991F8A599F4FFC0180819181FC01C2
:100110002381348121503109FC0134832383FC0184
:100120008381948121E0009709F020E0222309F4E3
:100130006DC089819A81880F991F8A599F4FFC0150
:100140008081918129813A81220F331F2A593F4FA3
:10015000F90120813181F90125813681FC01348347
:10016000238389819A81880F991F8A599F4FFC01A7
:1001700080819181FC0122812F5FFC01228346C096
:1001800089819A81880F991F8A599F4FFC0180812C
:100190009181FC0183819481009791F089819A81FA
:1001A000880F991F8A599F4FFC0180819181FC0122
:1001B0002381348121503109FC013483238326C0FB
:1001C00089819A81880F991F8A599F4FFC018081EC
:1001D0009181FC012381348141E02115310509F031
:1001E00040E021503109FC0134832383442371F022
:1001F00089819A81880F991F8A599F4FFC018081BC
:100200009181FC0122812F5FFC01228389819A81E7
:1002100001969A83898329813A8180916402909121
:10022000650241E02817390708F040E0442309F04F
:1002300057CF0F900F90DF91CF91FF91EF919F914A
:100240008F914F913F912F910F9000925F000F90EF
:100250001F901895CF93DF93CDB7DEB789E590E077
:1002600029E530E0F90120812260FC01208383E54B
:1002700090E023E530E0F90120812B66FC0120832A
:100280008CE590E02AEFFC012083DF91CF91089567
:10029000CF93DF9300D0CDB7DEB70E942A017894C8
:1002A0001A82198289819A81880F991F8A599F4FD2
:1002B000FC0180819181FC0182818823F9F0898190
:1002C0009A81880F991F8A599F4FFC0180819181E3
:1002D000FC0122812150FC01228389819A81880FAF
:1002E000991F8A599F4FFC0180819181FC01808177
:1002F0009181FC0109951A8219820DC029813A81E8
:1003000080916402909165022817390720F01A82C3
:1003100019820000C7CF89819A8101969A838983C7
:10032000C1CFCF93DF93CDB7DEB727970FB6F89441
:10033000DEBF0FBECDBF9C838B837E836D834F83D7
:1003400088E090E00E946D029A83898389819A8176
:100350002B813C81FC013183208389819A812D810D
:100360003E81FC013683258389819A81FC011282BA
:1003700089819A812D813E81FC0134832383898187
:100380009A812F81FC0127838091640290916502FC
:100390009C01220F331F2A593F4F49815A81F9018D
:1003A000518340830196909365028093640227965F
:1003B0000FB6F894DEBF0FBECDBFDF91CF91089589
:1003C000CF93DF93CDB7DEB79091660281E08927A6
:1003D000882369F08BE390E02BE330E0F901208182
:1003E0002160FC01208381E0809366020BC08BE3D7
:1003F00090E02BE330E0F90120812E7FFC01208387
:1004000010926602DF91CF910895CF93DF93CDB71D
:10041000DEB79091670281E08927882369F08BE33A
:1004200090E02BE330E0F90120812260FC01208381
:1004300081E0809367020BC08BE390E02BE330E018
:10044000F90120812D7FFC01208310926702DF914A
:10045000CF910895CF93DF93CDB7DEB78BE390E0D4
:100460002FEFFC012083DF91CF910895CF93DF938D
:10047000CDB7DEB78BE390E0FC011082DF91CF9126
:100480000895CF93DF93CDB7DEB78AE390E02FEFE7
:10049000FC01208341E068EE73E080EE91E00E9471
:1004A000910141E060ED77E085E092E00E949101EA
:1004B00040E068E873E18AE292E00E94910140E046
:1004C00060E777E186E392E00E9491010E94480193
:1004D00080E090E0DF91CF9108950F931F93CF9329
:1004E000DF938230910510F482E090E0E0916A029F
:1004F000F0916B0220E030E0C0E0D0E023C040810A
:10050000518148175907A8F04817590761F48281AB
:100510009381209719F09B838A832EC090936B025E
:1005200080936A0229C02115310529F0421753072B
:1005300010F0A90102C0BE01DF0102811381EF01A9
:100540009A01F8013097D9F62115310509F1281BD8
:10055000390B2430310590F412968D919C911397AC
:100560006115710521F0FB019383828304C0909390
:100570006B0280936A02FD01329644C0FD01E20FD6
:10058000F31F81939193225031092D933C933AC0EC
:100590002091680230916902232B41F4209162007E
:1005A00030916300309369022093680220916000CB
:1005B000309161002115310541F42DB73EB74091CE
:1005C000640050916500241B350BE0916802F091A6
:1005D0006902E217F307A0F42E1B3F0B2817390717
:1005E00078F0AC014E5F5F4F2417350748F04E0F8F
:1005F0005F1F50936902409368028193919302C0F8
:10060000E0E0F0E0CF01DF91CF911F910F910895CD
:10061000EF92FF920F931F93CF93DF93009709F40C
:100620008FC0DC01129713961C921E921297E090D5
:100630006A02F0906B02E114F10489F42D913C916F
:100640001197280F391F80916802909169028217D3
:10065000930789F5B0936902A093680271C0E7011E
:1006600020E030E001C0EA01CA17DB0738F44A8114
:100670005B819E0141155105B1F722C0BC0162505A
:100680007109FB01D383C28300811181AC01400F4A
:10069000511F4C175D0761F448815981400F511F6C
:1006A0004E5F5F4F518340834A815B815383428316
:1006B0002115310529F4B0936B02A0936A0240C062
:1006C000F901B383A283E90169917991C60FD71F1C
:1006D000AC17BD0779F4DC015E914E91460F571FB0
:1006E0004E5F5F4F5183408312968D919C9113977B
:1006F00093838283A0E0B0E002C0D7017C01F701C0
:10070000828193810097C9F7C701029620813181C8
:10071000820F931F209168023091690228173907D0
:1007200079F4109729F410926B0210926A0204C0B7
:1007300013961C921E921297F0926902E092680240
:10074000CDB7DEB7E6E00C94B1032A883988488833
:100750005F846E847D848C849B84AA84B984C884DD
:10076000DF80EE80FD800C811B81AA81B981CE0FD4
:10077000D11D0FB6F894DEBF0FBECDBFED010895B9
:04078000F894FFCF1B
:0607840000006C022000E1
:00000001FF
