:100000000C942A000C9434000C9434000C943400AA
:100010000C9434000C9434000C9434000C94340090
:100020000C9434000C9434000C9440000C94360072
:100030000C9434000C9434000C9434000C94340070
:100040000C9434000C9434000C9434000C94340060
:100050000C94340011241FBECFE5D8E0DEBFCDBF25
:100060000E944A000C944D000C9400001F920F92C5
:100070000FB60F9211240F900FBE0F901F9018957E
:100080001F920F920FB60F9211240F900FBE0F9078
:0E0090001F90189580E090E00895F894FFCF3F
:00000001FF
